:090880007E001208B67F017E0023
:10088900D3EF9400EE648094804015E4FDFC0DBD27
:1008990000010CBC75F8BD30F5EF1F70E31E80E058
:0108A900222C
:0C08AA00C2B08FA0D2B1120885C2B122EA
:0C08B600D2B08FA0D2B1120885C2B122CE
:100800007F387E001208AA7F017E001208AA7F0EA0
:100810007E001208AAD2B7D2B6D2B5D2B2D2B3D223
:10082000B4C2B420B5087F3112088030B5FD20B6BF
:10083000057F3412088020B7057F37120880D2B4B4
:10084000C2B320B5057F3212088020B6057F35126D
:10085000088020B7057F38120880D2B3C2B220B515
:10086000057F3312088020B6057F3612088020B736
:100870000A7F017E001208AA120885D2B20208215E
:030000000208C231
:0C08C200787FE4F6D8FD7581070208007D
:00000001FF
