:100A9200202077656C636F6D6520200020456E74A1
:100AA20065722070617373776F7264007061737323
:100AB20020636F72726563740020496E636F727295
:100AC20065637420200070617373206368616E67D0
:040AD2006564200037
:0F0BD6000D08446F20676F6F676C652E2E2E0021
:0E0BE600E4FFFE0FBF00010EBE75F8BF30F534
:010BF40022DE
:0C0C0400D290D2928F80120BE6C2922296
:0C0C1000C290D2928F80120BE6C292229A
:0F0BF5007F38120C107F01120C107F0E020C10B3
:060B3F008B1B8A1C891DBE
:100B4500E4FDFCAB1BAA1CA91D8D828C83120AD661
:0D0B5500FF600A120C040DBD00010C80E6CB
:010B62002270
:100BBF00120C1C7FA0120B15120BCFE4FF120B159A
:070BCF00D2930000C2932243
:0B0C1C00D294D2930000C294C2932235
:0B0C2700C294D2930000D294C293222A
:100B1500E4FBFAEFC4131313540124FF9294EF2559
:100B2500E0FFD2930000C2930BBB00010AEB6408FF
:090B35004A70E0A2949200C294FF
:010B3E002294
:100B8500AE07120BBFAF06120B15120BCF120C27B7
:100B950020000A7F6F120C047F6B120C04020BCF2E
:100B6300E4FFD294FDFCEF25E0FFD2930000309424
:100B7300010FC2930DBD00010CED64084C70E7C278
:010B830094DD
:010B8400224E
:100BA500120BBF120C1C7FA1120B15120BCF120BCF
:090BB50063120BCF120C277E0025
:010BBE002214
:100800007515007516FBE4F519F51AC291C2B712F9
:100810000BF57BFF7A0A7992120B3F7F01120C10C5
:100820007FC0120C10120BA58E178F187F01120CAF
:10083000107BFF7A0A799E120B3F7FC0120C10D2F8
:10084000A7D2A6D2A5D2A4D2A0D2A1D2A2D2A3C20C
:10085000A420A31C7F34120C04AE19AF1A7C007DB7
:100860000A120B03EF2404F51AE43EF51930A3FD38
:1008700020A21C7F33120C04AE19AF1A7C007D0A33
:10088000120B03EF2403F51AE43EF51930A2FD2004
:10089000A11C7F32120C04AE19AF1A7C007D0A1223
:1008A0000B03EF2402F51AE43EF51930A1FD20A058
:1008B00026D2B7120BE6120BE6C2B77F31120C0438
:1008C000AE19AF1A7C007D0A120B03EF2401F51A52
:1008D000E43EF51930A0FDD2A4C2A520A31C7F38A8
:1008E000120C04AE19AF1A7C007D0A120B03EF2420
:1008F00008F51AE43EF51930A3FD20A21C7F37123B
:100900000C04AE19AF1A7C007D0A120B03EF24070A
:10091000F51AE43EF51930A2FD20A11C7F36120C19
:1009200004AE19AF1A7C007D0A120B03EF2406F502
:100930001AE43EF51930A1FD20A01C7F35120C04ED
:10094000AE19AF1A7C007D0A120B03EF2405F51ACD
:10095000E43EF51930A0FDD2A5C2A620A3087F630E
:10096000120C0430A3FD20A2087F62120C0430A2F6
:10097000FD20A1087F61120C0430A1FD20A01C7F86
:1009800039120C04AE19AF1A7C007D0A120B03EF6A
:100990002409F51AE43EF51930A0FDD2A6C2A7201D
:1009A000A3287F01120C10E51AB5180DE519B5172B
:1009B000087BFF7A0A79AE80067BFF7A0A79BB1240
:1009C0000B3FE4F519F51A30A3FD20A2187F481259
:1009D0000B857BFF7A0A79C8120B3F30A2FD120B00
:1009E000A58E178F1820A1087F65120C0430A1FD79
:1009F00020A0087F64120C0430A0FDD2A7D2A6D29A
:060A0000A5D2A402084F7C
:03000000020A06EB
:0C0A0600787FE4F6D8FD758120020A4DCF
:100AD600BB010CE58229F582E5833AF583E02250D5
:100AE60006E92582F8E622BBFE06E92582F8E2221F
:0D0AF600E58229F582E5833AF583E4932239
:100B0300EF8DF0A4A8F0CF8CF0A428CE8DF0A42E06
:020B1300FE22C0
:100A1200020800E493A3F8E493A34003F68001F2F2
:100A220008DFF48029E493A3F85407240CC8C333E5
:100A3200C4540F4420C8834004F456800146F6DFB4
:100A4200E4800B0102040810204080900BD6E47E63
:100A5200019360BCA3FF543F30E509541FFEE493A9
:100A6200A360010ECF54C025E060A840B8E493A370
:100A7200FAE493A3F8E493A3C8C582C8CAC583CA9B
:100A8200F0A3C8C582C8CAC583CADFE9DEE780BE53
:010BE500000F
:00000001FF
