:100929000F08496E646961206973204772656174B3
:0109390000BD
:0808FB00D2B78FA07F017E003F
:10090300E4FDFCC3ED9FEE6480F8EC648098501521
:10091300E4FAFB0BBB00010ABA4EF8BB20F50DBD90
:0509230000010C80DE64
:0109280022AC
:08093B00C2B61208FBC2B7228C
:08094300D2B61208FBC2B72274
:10088C007F3812093B7F0E12093B7F0112093B7F17
:10089C004E1209437F491209437F451209437F4C8D
:1008AC001209437F491209437F541209437F2012D6
:1008BC0009437F441209437F521209437F441209B2
:1008CC00437F4F1209437FC012093BE4F517F5181B
:1008DC0074082518F8E6FF600D1209430518E51891
:0F08EC0070EE051780EA7F647E00120903809189
:03000000020800F3
:0C080000787FE4F6D8FD758118020847E7
:10080C0002088CE493A3F8E493A34003F68001F26E
:10081C0008DFF48029E493A3F85407240CC8C333ED
:10082C00C4540F4420C8834004F456800146F6DFBC
:10083C00E4800B0102040810204080900929E47E1A
:10084C00019360BCA3FF543F30E509541FFEE493B1
:10085C00A360010ECF54C025E060A840B8E493A378
:10086C00FAE493A3F8E493A3C8C582C8CAC583CAA3
:10087C00F0A3C8C582C8CAC583CADFE9DEE780BE5B
:01093A0000BC
:00000001FF
