:10090A000F0A496E646961206973206772656174B0
:01091A0000DC
:0B08C5007F387E0012091C7F017E00BE
:1008D000D3EF9400EE648094804015E4FDFC0DBDE0
:1008E00000010CBC75F8BD30F5EF1F70E31E80E011
:0108F00022E5
:0C091C00C2B0D2B18FA01208CCC2B12230
:0C092800D2B0D2B18FA01208CCC2B12214
:1008F1001208C51208C57F011208C77F0E7E0012BB
:09090100091C7F017E000208D0F0
:10088C001208F1E4F508F509740A2509F8E6FF33B6
:10089C0095E0FE1209280509E50970020508C394C4
:1008AC000EE5086480948040DF7F327E001208D011
:0908BC007F017E0012091C80CAB4
:03000000020800F3
:0C080000787FE4F6D8FD758118020847E7
:10080C0002088CE493A3F8E493A34003F68001F26E
:10081C0008DFF48029E493A3F85407240CC8C333ED
:10082C00C4540F4420C8834004F456800146F6DFBC
:10083C00E4800B010204081020408090090AE47E39
:10084C00019360BCA3FF543F30E509541FFEE493B1
:10085C00A360010ECF54C025E060A840B8E493A378
:10086C00FAE493A3F8E493A3C8C582C8CAC583CAA3
:10087C00F0A3C8C582C8CAC583CADFE9DEE780BE5B
:01091B0000DB
:00000001FF
