:10088200D3EF9400EE648094804015E4FDFC0DBD2E
:1008920000010CBC75F8BD30F5EF1F70E31E80E05F
:0108A2002233
:10080000E4FBFA8BA07F017E001208820BBB000183
:100810000AEB640A4A70ECD296D295D294D293D263
:1008200092D291D290C29420900375A0012091039E
:1008300075A00420920375A00720930375A00AD227
:1008400094C29520900375A00220910375A0052005
:10085000920375A008209303E4F5A0D295C29620D8
:10086000900375A00320910375A00620920375A044
:100870000920930375A00BD2967F047E0012088294
:02088000809561
:030000000208A350
:0C08A300787FE4F6D8FD7581070208009C
:00000001FF
