:1008DC00E4FDFCC3ED9FEC9E5015E4FBFA0BBB0052
:0F08EC00010ABA4EF8BB20F50DBD00010C80E4E7
:0108FB0022DA
:10088B00750A00750B08E4F508F509E4F583F582A4
:10089B0075A0FFAF0BAE0A1208DCE4F5A0AF0BAEF0
:1008AB000A1208DCA3E5826405458370E3AE0AAF48
:1008BB000B7C007D021208008E0A8F0B0509E509DF
:1008CB0070020508C39403E5086480948040BC80E3
:0108DB00B567
:030000000208FCF7
:0C08FC00787FE4F6D8FD75810B02088BB4
:10080000C2D5EC30E709B2D5E4C39DFDE49CFCEE13
:1008100030E715B2D5E4C39FFFE49EFE120836C34D
:10082000E49DFDE49CFC800312083630D507C3E448
:060830009FFFE49EFE2282
:10083600BC000BBE0029EF8DF084FFADF022E4CCA6
:10084600F875F008EF2FFFEE33FEEC33FCEE9DEC6F
:10085600984005FCEE9DFE0FD5F0E9E4CEFD22EDB5
:10086600F8F5F0EE8420D21CFEADF075F008EF2FFF
:10087600FFED33FD4007985006D5F0F222C398FDF0
:050886000FD5F0EA228D
:00000001FF
