:100AA10053554E004D4F4E00545545005745440097
:0C0AB1005448550046524900534154007F
:100A7D0007080003060107070E1515FF0AA1FF0A57
:100A8D00A5FF0AA9FF0AADFF0AB1FF0AB5FF0AB912
:030A9D00010F0046
:10080000120A09C2B7E4F50F7D027FD012097812EF
:100810000ABDE513120AC27F3A120AC77D017FD0D2
:10082000120978120ABDE513120AC27F3A120AC7EA
:10083000120A31E4FD7FD0120978120ABDE51312C5
:100840000AC27F20120AC77D037FD0120978EF7594
:10085000F003A42415F8860308E6FA08E6F9120A5C
:10086000587FC0120AF17D047FD0120978120ABDA8
:10087000E513120AC27F2F120AC77D057FD0120925
:1008800078120ABDE513120AC27F2F120AC77F32FF
:10089000120AC77F30120AC77D067FD0120978126C
:1008A0000ABDE513120AC27F647E00120A357F0179
:0608B000120AF102080823
:0D0B020030B40930B506C2B500C2B40022FF
:090B0F00C2B5D2B400D2B5002237
:02094200AD07FF
:100944007F807E00EDFBEB5F6004D2B58002C2B510
:10095400D2B400C2B400EEC313FEEF13FFD394006D
:10096400EE940050DFD2B5D2B400A2B5E433F51052
:03097400C2B4000A
:01097700225D
:1009DC00E4FE7D80D2B40030B503ED4206C2B40013
:1009EC00EDC313FDD3940050EBBF0104D2B58002CC
:0C09FC00C2B5D2B400C2B400D2B5AF0640
:010A080022CB
:1009AC00AC07AA03A905120B02AF04120942E51009
:1009BC00B40103120B0FE510640160EAAF011209D8
:1009CC0042AF02120942120B0F7F047E00020A355D
:04097800AC07AA0519
:10097C00120B02AF04120942E510B40103120B0F63
:10098C00E510640160EAAF02120942120B0F120B60
:0F099C0002EC04FF1209427F011209DC120B0F5B
:0109AB002229
:100A0900120A317F0E120AF1120A317F38120AF1E5
:100A1900120A317F06120AF1120A317F01120AF114
:080A2900120A317F80020AF17C
:100AF100D2B2C291C2B08FA0C2B27F027E00020AFE
:010B010035BE
:0A0ABD008F13E513C4540F2430FF1B
:100AC700D2B2C291D2B08FA0C2B27F027E00020A18
:010AD70035E9
:100A58008B2A8A2B892CAB2AAA2BA92C120AD8609C
:100A680013052CE52C7002052B14F9120AD8FF1275
:050A78000AC780E22224
:040A31007F0A7E00BA
:100A3500EF1FAA0670011ED39400EA94004013E448
:100A4500FCFDC3ED94F4EC940150E50DBD00010CE3
:020A550080F02F
:010A5700227C
:030000000208B63D
:0C08B600787FE4F6D8FD75812C0208FD67
:100AD800BB010689828A83E0225002E722BBFE021C
:090AE800E32289828A83E493224F
:1008C200020800E493A3F8E493A34003F68001F244
:1008D20008DFF48029E493A3F85407240CC8C33337
:1008E200C4540F4420C8834004F456800146F6DF06
:1008F200E4800B0102040810204080900A7DE47E0F
:10090200019360BCA3FF543F30E509541FFEE493FA
:10091200A360010ECF54C025E060A840B8E493A3C1
:10092200FAE493A3F8E493A3C8C582C8CAC583CAEC
:10093200F0A3C8C582C8CAC583CADFE9DEE780BEA4
:010AA0000055
:00000001FF
