:0C0A4200020C0000020A00000208000183
:0A09F000F50DE43EF50C7F017E00DA
:1009FA00D3EF9400EE648094804015E4FDFC0DBDB5
:100A0A0000010CBC75F8BD30F5EF1F70E31E80E0E5
:010A1A0022B9
:0C0A4F00C2B08FA0D2B11209F6C2B122D1
:090A1B007E00120A247F6F7E00A8
:0C0A2400D2B08FA0D2B11209F6C2B122EC
:100800007F387E00120A4F7F017E00120A4F7F0E52
:100810007E00120A4FD2B7D2B6D2B5D2B2D2B3D27C
:10082000B4E509640145086003020963C2B420B558
:100830001A7F31FE120A24AE0CAF0D7C007D0A1225
:100840000A30EF24011209F030B5FD20B6187F34CC
:100850007E00120A24AE0CAF0D7C007D0A120A3015
:10086000EF24041209F020B70A7F3D7E00120A240B
:100870001209F6D2B4C2B320B5187F327E00120A34
:1008800024AE0CAF0D7C007D0A120A30EF24021258
:1008900009F020B6187F357E00120A24AE0CAF0D89
:1008A0007C007D0A120A30EF24051209F020B718E7
:1008B0007F387E00120A24AE0CAF0D7C007D0A1238
:1008C0000A30EF24081209F0D2B3C2B220B5187F63
:1008D000337E00120A24AE0CAF0D7C007D0A120A92
:1008E00030EF24031209F020B6187F367E00120A7A
:1008F00024AE0CAF0D7C007D0A120A30EF240612E4
:1009000009F020B759E50D647B450C70157F6FFE2B
:10091000120A247F6B7E00120A24750800750902F2
:1009200080FE7F6E120A1B050BE50B7002050A1292
:1009300009F67F017E00120A4FE4F50CF50DD3E5B0
:100940000B9402E50A6480948040137F4C120A1BCA
:100950007F637E00120A247F6B7E00120A24D2B2CB
:040960000208212246
:030000000209648E
:0C096400787FE4F6D8FD75810D0209AB28
:100A3000EF8DF0A4A8F0CF8CF0A428CE8DF0A42EDA
:020A4000FE2294
:10097000020800E493A3F8E493A34003F68001F295
:1009800008DFF48029E493A3F85407240CC8C33388
:10099000C4540F4420C8834004F456800146F6DF57
:1009A000E4800B0102040810204080900A42E47E9B
:1009B000019360BCA3FF543F30E509541FFEE4934C
:1009C000A360010ECF54C025E060A840B8E493A313
:1009D000FAE493A3F8E493A3C8C582C8CAC583CA3E
:1009E000F0A3C8C582C8CAC583CADFE9DEE780BEF6
:010A4E0000A7
:00000001FF
