:08083600D2B78FA07F017E0004
:10083E00E4FDFCC3ED9FEE6480F8EC6480985015E7
:10084E00E4FAFB0BBB00010ABA4EF8BB20F50DBD56
:05085E0000010C80DE2A
:010863002272
:08087000C2B6120836C2B7221D
:08087800D2B6120836C2B72205
:100800007F381208707F0E1208707F011208707F07
:100810004E1208787F491208787F451208787F4C7D
:100820001208787F491208787F541208787F647E16
:060830000012083E80CA20
:030000000208648F
:0C086400787FE4F6D8FD758107020800DB
:00000001FF
