:1008F1000F08496E646961206973206772656174CC
:10090100000F17504A313131206973206368616DDE
:02091100700074
:0808C800D2B18FA07F017E0078
:1008D000D3EF9400EE648094804015E4FDFC0DBDE0
:1008E00000010CBC75F8BD30F5EF1F70E31E80E011
:0108F00022E5
:08093000C2B01208C8C2B122D6
:08093800D2B01208C8C2B122BE
:100914007F387E001209307F387E001209307F0153
:0C0924007E001209307F0E7E00020930B8
:10088C00120914E4FBFA74082BF8E6FF600E33959A
:10089C00E0FE1209380BBB00010A80EA7FC07E0023
:1008AC00120930E4FAFB74172BF8E6FF60D5339588
:0C08BC00E0FE1209380BBB00010A80EAC4
:03000000020800F3
:0C080000787FE4F6D8FD758125020847DA
:10080C0002088CE493A3F8E493A34003F68001F26E
:10081C0008DFF48029E493A3F85407240CC8C333ED
:10082C00C4540F4420C8834004F456800146F6DFBC
:10083C00E4800B01020408102040809008F1E47E53
:10084C00019360BCA3FF543F30E509541FFEE493B1
:10085C00A360010ECF54C025E060A840B8E493A378
:10086C00FAE493A3F8E493A3C8C582C8CAC583CAA3
:10087C00F0A3C8C582C8CAC583CADFE9DEE780BE5B
:0109130000E3
:00000001FF
