:0C0992000A0868656C6C6F204932630035
:0E097400E4FFFE0FBF00010EBE75F8BF30F5A8
:010982002252
:0609620012090F12095BEF
:0C096800D290D2928F80120974C29222A9
:0C099F00C290D2928F80120974C2922282
:0F0983007F3812099F7F0112099F7F0E02099F83
:10094B001209AB7FA01208BC12095BE4FF1208BCB2
:07095B00D2930000C29322B9
:0B09AB00D294D2930000C294C29322A9
:0B09B600C294D2930000D294C293229E
:1008BC00E4FBFAEFC4131313540124FF9294EF25B5
:1008CC00E0FFD2930000C2930BBB00010AEB64085B
:0908DC004A70E0A2949200C2945B
:0108E50022F0
:10088C00AE0712094BAF061208BC12095B7F6F1240
:10089C0008BC12095B7F731208BC12095B1209B603
:1008AC0020000A7F6F1209687F6B12096802095BCE
:10090F00E4FFD294FDFCEF25E0FFD293000030947A
:10091F00010FC2930DBD00010CED64084C70E7C2CE
:01092F009433
:0109300022A4
:1009310012094B1209AB7FA11208BC12095B120903
:0A094100621209621209620209B68F
:1008E600C291C2B7120983E4FDFC74082DF8E6FF35
:1008F600600A1209680DBD00010C80EE7FC0120966
:090906009F7F4312088C020931A5
:03000000020800F3
:0C080000787FE4F6D8FD758120020847DF
:10080C000208E6E493A3F8E493A34003F68001F214
:10081C0008DFF48029E493A3F85407240CC8C333ED
:10082C00C4540F4420C8834004F456800146F6DFBC
:10083C00E4800B0102040810204080900992E47EB1
:10084C00019360BCA3FF543F30E509541FFEE493B1
:10085C00A360010ECF54C025E060A840B8E493A378
:10086C00FAE493A3F8E493A3C8C582C8CAC583CAA3
:10087C00F0A3C8C582C8CAC583CADFE9DEE780BE5B
:01099E000058
:00000001FF
