:0E08E800E4FFFE0FBF00010EBE75F8BF30F535
:0108F60022DF
:0C090600D290D2928F801208E8C2922298
:0C091200C290D2928F801208E8C292229C
:0F08F7007F381209127F011209127F0E020912B7
:10080000C2B7C2911208F77F41120906D2A7D2A639
:10081000D2A5D2A4D2A0D2A1D2A2D2A3C2A420A3F4
:10082000087F3412090630A3FD20A2087F33120985
:100830000630A2FD20A1087F3212090630A1FD205A
:10084000A00B7F3112090630A1FD30A0FDD2A4C259
:10085000A520A3087F3812090630A3FD20A2087F37
:100860003712090630A2FD20A1087F361209063092
:10087000A1FD20A0087F3512090630A0FDD2A5C237
:10088000A620A3087F6312090630A3FD20A2087FDB
:100890006212090630A2FD20A1087F61120906300C
:1008A000A1FD20A0087F3912090630A0FDD2A6C202
:1008B000A720A3087F6712090630A3FD20A2087FA6
:1008C0006612090630A2FD20A1087F6512090630D4
:1008D000A1FD20A0087F6412090630A0FDD2A7D296
:0808E000A6D2A5D2A402081C57
:0300000002091ED4
:0C091E00787FE4F6D8FD75810702080020
:00000001FF
