:10088D00E4FFFEE4FDFC0DBD00010CBC75F8BD30B0
:0C089D00F50FBF00010EEF64034E70E782
:0108A900222C
:10080000EF4E700375A0C0EF64014E700375A0F940
:10081000EF64024E700375A0A4EF64034E7003757D
:10082000A0B0EF64044E700375A099EF64054E709C
:100830000375A092EF64064E700375A082EF640703
:100840004E700375A0F8EF64084E700375A080EF3A
:0B08500064094E700375A09002088D33
:10085B00E4FBFAAF03AE021208000BBB00010AEB7C
:10086B00640A4A70EE7A007B0AD3EB9400EA648048
:10087B00948040DCAF03AE02120800EB1B70EA1A47
:02088B0080E704
:030000000208AA49
:0C08AA00787FE4F6D8FD75810702085B3A
:00000001FF
