:1008D1001708496E646961206973206772656174E4
:0908E10020636F756E74727900DA
:0E08EB00E4FFFE0FBF00010EBE75F8BF30F532
:0108F90022DC
:0C08FA00D290D2928F801208EBC29222A2
:0C090600C290D2928F801208EBC29222A5
:10088C00C291D2B71208EB1208EB1208EBC2B77F79
:10089C00381209067F011209067F0E120906E4FDC3
:1008AC00FC74082DF8E6FF60151208FAED640F4C85
:1008BC0070057FC01209060DBD00010C80E37F019D
:0508CC0012090680D9AD
:03000000020800F3
:0C080000787FE4F6D8FD75811E020847E1
:10080C0002088CE493A3F8E493A34003F68001F26E
:10081C0008DFF48029E493A3F85407240CC8C333ED
:10082C00C4540F4420C8834004F456800146F6DFBC
:10083C00E4800B01020408102040809008D1E47E73
:10084C00019360BCA3FF543F30E509541FFEE493B1
:10085C00A360010ECF54C025E060A840B8E493A378
:10086C00FAE493A3F8E493A3C8C582C8CAC583CAA3
:10087C00F0A3C8C582C8CAC583CADFE9DEE780BE5B
:0108EA00000D
:00000001FF
